{
  "_format": "hh-sol-artifact-1",
  "contractName": "Transactions",
  "sourceName": "contracts/Transactions.sol",
  "abi": [
    {
      "anonymous": false,
      "inputs": [
        {
          "indexed": false,
          "internalType": "uint256",
          "name": "id",
          "type": "uint256"
        },
        {
          "indexed": false,
          "internalType": "address",
          "name": "sender",
          "type": "address"
        },
        {
          "indexed": false,
          "internalType": "address payable",
          "name": "receiver",
          "type": "address"
        },
        {
          "indexed": false,
          "internalType": "string",
          "name": "keyword",
          "type": "string"
        },
        {
          "indexed": false,
          "internalType": "uint256",
          "name": "amount",
          "type": "uint256"
        },
        {
          "indexed": false,
          "internalType": "bool",
          "name": "transacted",
          "type": "bool"
        },
        {
          "indexed": false,
          "internalType": "uint256",
          "name": "timestamp",
          "type": "uint256"
        },
        {
          "indexed": false,
          "internalType": "string",
          "name": "message",
          "type": "string"
        }
      ],
      "name": "TransactionAdded",
      "type": "event"
    },
    {
      "inputs": [
        {
          "internalType": "address payable",
          "name": "receiver",
          "type": "address"
        },
        {
          "internalType": "uint256",
          "name": "_amount",
          "type": "uint256"
        },
        {
          "internalType": "string",
          "name": "_keyword",
          "type": "string"
        },
        {
          "internalType": "string",
          "name": "_messages",
          "type": "string"
        }
      ],
      "name": "addTransaction",
      "outputs": [],
      "stateMutability": "nonpayable",
      "type": "function"
    },
    {
      "inputs": [],
      "name": "getTransactionCount",
      "outputs": [
        {
          "internalType": "uint256",
          "name": "",
          "type": "uint256"
        }
      ],
      "stateMutability": "view",
      "type": "function"
    },
    {
      "inputs": [],
      "name": "getTransactions",
      "outputs": [
        {
          "components": [
            {
              "internalType": "uint256",
              "name": "id",
              "type": "uint256"
            },
            {
              "internalType": "address",
              "name": "sender",
              "type": "address"
            },
            {
              "internalType": "address payable",
              "name": "receiver",
              "type": "address"
            },
            {
              "internalType": "string",
              "name": "keyword",
              "type": "string"
            },
            {
              "internalType": "uint256",
              "name": "amount",
              "type": "uint256"
            },
            {
              "internalType": "bool",
              "name": "transacted",
              "type": "bool"
            },
            {
              "internalType": "uint256",
              "name": "timestamp",
              "type": "uint256"
            },
            {
              "internalType": "string",
              "name": "messages",
              "type": "string"
            }
          ],
          "internalType": "struct Transactions.Transaction[]",
          "name": "",
          "type": "tuple[]"
        }
      ],
      "stateMutability": "view",
      "type": "function"
    },
    {
      "inputs": [],
      "name": "transactionCount",
      "outputs": [
        {
          "internalType": "uint256",
          "name": "",
          "type": "uint256"
        }
      ],
      "stateMutability": "view",
      "type": "function"
    }
  ],
  "bytecode": "0x60806040526000805534801561001457600080fd5b50610d54806100246000396000f3fe608060405234801561001057600080fd5b506004361061004c5760003560e01c80632e7700f0146100515780636d1b6bb11461006f57806383920e901461008b578063b77bf600146100a9575b600080fd5b6100596100c7565b60405161006691906105f8565b60405180910390f35b610089600480360381019061008491906107f7565b6100d0565b005b6100936102cd565b6040516100a09190610af1565b60405180910390f35b6100b1610536565b6040516100be91906105f8565b60405180910390f35b60008054905090565b6000808154809291906100e290610b42565b919050555060405180610100016040528060005481526020013373ffffffffffffffffffffffffffffffffffffffff1681526020018573ffffffffffffffffffffffffffffffffffffffff1681526020018381526020018481526020016001151581526020014281526020018281525060016000548154811061016857610167610b8b565b5b90600052602060002090600802016000820151816000015560208201518160010160006101000a81548173ffffffffffffffffffffffffffffffffffffffff021916908373ffffffffffffffffffffffffffffffffffffffff16021790555060408201518160020160006101000a81548173ffffffffffffffffffffffffffffffffffffffff021916908373ffffffffffffffffffffffffffffffffffffffff160217905550606082015181600301908051906020019061022a92919061053c565b506080820151816004015560a08201518160050160006101000a81548160ff02191690831515021790555060c0820151816006015560e082015181600701908051906020019061027b92919061053c565b509050507f87fbcea9f8fda5a5737386fd1c83ca6991070908f65c2eeff378fd83e868e5cf60005433868587600142886040516102bf989796959493929190610c31565b60405180910390a150505050565b60606001805480602002602001604051908101604052809291908181526020016000905b8282101561052d578382906000526020600020906008020160405180610100016040529081600082015481526020016001820160009054906101000a900473ffffffffffffffffffffffffffffffffffffffff1673ffffffffffffffffffffffffffffffffffffffff1673ffffffffffffffffffffffffffffffffffffffff1681526020016002820160009054906101000a900473ffffffffffffffffffffffffffffffffffffffff1673ffffffffffffffffffffffffffffffffffffffff1673ffffffffffffffffffffffffffffffffffffffff1681526020016003820180546103db90610cec565b80601f016020809104026020016040519081016040528092919081815260200182805461040790610cec565b80156104545780601f1061042957610100808354040283529160200191610454565b820191906000526020600020905b81548152906001019060200180831161043757829003601f168201915b50505050508152602001600482015481526020016005820160009054906101000a900460ff161515151581526020016006820154815260200160078201805461049c90610cec565b80601f01602080910402602001604051908101604052809291908181526020018280546104c890610cec565b80156105155780601f106104ea57610100808354040283529160200191610515565b820191906000526020600020905b8154815290600101906020018083116104f857829003601f168201915b505050505081525050815260200190600101906102f1565b50505050905090565b60005481565b82805461054890610cec565b90600052602060002090601f01602090048101928261056a57600085556105b1565b82601f1061058357805160ff19168380011785556105b1565b828001600101855582156105b1579182015b828111156105b0578251825591602001919060010190610595565b5b5090506105be91906105c2565b5090565b5b808211156105db5760008160009055506001016105c3565b5090565b6000819050919050565b6105f2816105df565b82525050565b600060208201905061060d60008301846105e9565b92915050565b6000604051905090565b600080fd5b600080fd5b600073ffffffffffffffffffffffffffffffffffffffff82169050919050565b600061065282610627565b9050919050565b61066281610647565b811461066d57600080fd5b50565b60008135905061067f81610659565b92915050565b61068e816105df565b811461069957600080fd5b50565b6000813590506106ab81610685565b92915050565b600080fd5b600080fd5b6000601f19601f8301169050919050565b7f4e487b7100000000000000000000000000000000000000000000000000000000600052604160045260246000fd5b610704826106bb565b810181811067ffffffffffffffff82111715610723576107226106cc565b5b80604052505050565b6000610736610613565b905061074282826106fb565b919050565b600067ffffffffffffffff821115610762576107616106cc565b5b61076b826106bb565b9050602081019050919050565b82818337600083830152505050565b600061079a61079584610747565b61072c565b9050828152602081018484840111156107b6576107b56106b6565b5b6107c1848285610778565b509392505050565b600082601f8301126107de576107dd6106b1565b5b81356107ee848260208601610787565b91505092915050565b600080600080608085870312156108115761081061061d565b5b600061081f87828801610670565b94505060206108308782880161069c565b935050604085013567ffffffffffffffff81111561085157610850610622565b5b61085d878288016107c9565b925050606085013567ffffffffffffffff81111561087e5761087d610622565b5b61088a878288016107c9565b91505092959194509250565b600081519050919050565b600082825260208201905092915050565b6000819050602082019050919050565b6108cb816105df565b82525050565b60006108dc82610627565b9050919050565b6108ec816108d1565b82525050565b6108fb81610647565b82525050565b600081519050919050565b600082825260208201905092915050565b60005b8381101561093b578082015181840152602081019050610920565b8381111561094a576000848401525b50505050565b600061095b82610901565b610965818561090c565b935061097581856020860161091d565b61097e816106bb565b840191505092915050565b60008115159050919050565b61099e81610989565b82525050565b6000610100830160008301516109bd60008601826108c2565b5060208301516109d060208601826108e3565b5060408301516109e360408601826108f2565b50606083015184820360608601526109fb8282610950565b9150506080830151610a1060808601826108c2565b5060a0830151610a2360a0860182610995565b5060c0830151610a3660c08601826108c2565b5060e083015184820360e0860152610a4e8282610950565b9150508091505092915050565b6000610a6783836109a4565b905092915050565b6000602082019050919050565b6000610a8782610896565b610a9181856108a1565b935083602082028501610aa3856108b2565b8060005b85811015610adf5784840389528151610ac08582610a5b565b9450610acb83610a6f565b925060208a01995050600181019050610aa7565b50829750879550505050505092915050565b60006020820190508181036000830152610b0b8184610a7c565b905092915050565b7f4e487b7100000000000000000000000000000000000000000000000000000000600052601160045260246000fd5b6000610b4d826105df565b91507fffffffffffffffffffffffffffffffffffffffffffffffffffffffffffffffff821415610b8057610b7f610b13565b5b600182019050919050565b7f4e487b7100000000000000000000000000000000000000000000000000000000600052603260045260246000fd5b610bc3816108d1565b82525050565b610bd281610647565b82525050565b600082825260208201905092915050565b6000610bf482610901565b610bfe8185610bd8565b9350610c0e81856020860161091d565b610c17816106bb565b840191505092915050565b610c2b81610989565b82525050565b600061010082019050610c47600083018b6105e9565b610c54602083018a610bba565b610c616040830189610bc9565b8181036060830152610c738188610be9565b9050610c8260808301876105e9565b610c8f60a0830186610c22565b610c9c60c08301856105e9565b81810360e0830152610cae8184610be9565b90509998505050505050505050565b7f4e487b7100000000000000000000000000000000000000000000000000000000600052602260045260246000fd5b60006002820490506001821680610d0457607f821691505b60208210811415610d1857610d17610cbd565b5b5091905056fea2646970667358221220bb32e2e9c74fd578d72ab737b588de9e9b85838f2e4e48f4fd2e667d1266b95164736f6c634300080a0033",
  "linkReferences": {},
  "deployedLinkReferences": {}
}